:020000040800F2
:10000000184F002029020008AD310008BD2C00085F
:10001000A9310008F9040008DD38000800000000DC
:100020000000000000000000000000002132000875
:100030009105000800000000B13100086D32000891
:10004000430200084302000843020008430200087C
:10005000430200084302000843020008430200086C
:10006000430200084302000843020008430200085C
:10007000430200084302000843020008430200084C
:10008000430200084302000843020008430200083C
:10009000FD0400080D0500084302000843020008A3
:1000A000430200084302000843020008430200081C
:1000B0005D330008430200084302000843020008C1
:1000C00043020008430200084302000843020008FC
:1000D00043020008CD38000843020008430200082C
:1000E0009505000843020008430200084302000887
:1000F00043020008430200084302000843020008CC
:1001000043020008430200084302000843020008BB
:100110004302000843020008430200086D33000850
:10012000430200084302000871050008430200086A
:100130004302000800000000000000004302000825
:10014000430200084302000843020008430200087B
:10015000430200084302000881050008430200082A
:10016000430200084302000843020008430200085B
:1001700043020008430200080000000000000000E5
:10018000430200084302000800F002F800F03CF8C7
:100190000AA090E8000C82448344AAF10107DA45E2
:1001A00001D100F031F8AFF2090EBAE80F0013F0F8
:1001B000010F18BFFB1A43F001031847FC4A000067
:1001C0001C4B0000103A24BF78C878C1FAD85207F7
:1001D00024BF30C830C144BF04680C6070470000C1
:1001E0000023002400250026103A28BF78C1FBD840
:1001F000520728BF30C148BF0B6070471FB504F0DD
:10020000C5FC1FBD10B510BD00F0E4F81146FFF7A6
:10021000F5FF03F0B7FB00F002F903B4FFF7F2FFBC
:1002200003BC00F005F90000094880470948004771
:10023000FEE7FEE7FEE7FEE7FEE7FEE7FEE7FEE796
:10024000FEE7FEE704480549054A064B70470000F3
:10025000493300088901000818430020184F002086
:10026000184B0020184B002053EA020C00F0698064
:100270002DE9F04B4FF00006002B1FBFB3FA83F5BA
:1002800003FA05F424FA05F65E4012BF1643B2FAEB
:1002900082F502FA05F4C5F120051EBF22FA05FC1D
:1002A00044EA0C04203556EA044C4FEA144418BFC3
:1002B000641C4FF000084FF00009904271EB030CF2
:1002C00039D3002919BFB1FA81F701FA07F6B0FA5C
:1002D00080F700FA07F6C7F120071EBF20FA07FCD7
:1002E00046EA0C062037B6FBF4FCA7EB0507103FE7
:1002F00007F01F0BCBF120062CFA06F60CFA0BFBCD
:1003000044BFB3460026202FA4BF5E464FF0000B2B
:100310005BEA060C08BF4FF0010B19EB0B0948EB29
:100320000608ABFB027C06FB02CC0BFB03CCC01B1C
:1003300071EB0C01C1E70B46024641464846BDE859
:10034000F08B13B5084318BF4FF0FF300146AFF3F1
:100350000080BDE81C4070474FF0000200B5134616
:1003600094469646203922BFA0E80C50A0E80C50D5
:10037000B1F12001BFF4F7AF090728BFA0E80C5086
:1003800048BF0CC05DF804EB890028BF40F8042B7F
:1003900008BF704748BF20F8022B11F0804F18BFEC
:1003A00000F8012B704770477047704710B500F098
:1003B00009F8006810BD10B5044600F003F80460A9
:1003C00010BD00000048704718000020004870472A
:1003D000180000207546FFF7F9FFAE460500694694
:1003E000534620F00700854618B020B5FFF72AFFD6
:1003F000BDE820404FF000064FF000074FF0000826
:100400004FF0000BAC46ACE8C009ACE8C009ACE862
:10041000C009ACE8C00921F007018D46704710B54E
:100420000446AFF300802046BDE81040FFF7F5BE5C
:1004300001491820ABBEFEE726000200704700000D
:1004400070B5002808BF70BD002504460026C4F220
:10045000020500BF28464FF48071012201F054F8D4
:10046000282000F025FF28464FF48071002201F07B
:100470004BF8282000F01CFF0136A642EAD370BDDD
:1004800010B50024C4F2020420464FF4807101220A
:1004900001F03AF8C82000F00BFF20464FF48071BD
:1004A000002201F031F8C82000F002FF20464FF48E
:1004B0008071012201F028F8322000F0F9FE204678
:1004C0004FF48071002201F01FF8322000F0F0FE9E
:1004D00020464FF48071012201F016F8322000F01E
:1004E000E7FE20464FF48071002201F00DF8322023
:1004F00000F0DEFE10BD0000FEE7000080B540F217
:10050000F000C2F2000000F01FFA80BD80B540F29A
:10051000F000C2F2000000F017FA80BD80B540F292
:10052000C002C2F20002002004234FF0080CC2E90E
:100530000103C2E9030C107540F2B802C2F20002D6
:100540000B5C135401300828FAD140F2F00040F25D
:10055000C00140F2B80240F2D803C2F20000C2F279
:100560000001C2F20002C2F2000300F09FF880BD59
:1005700080B540F21810C2F2000000F0E5FC80BD2A
:1005800080B540F27810C2F2000000F0DDFC80BDC2
:100590007047000080B54FF4806000F0D1FE80BD50
:1005A00072B600BFFEE7000040F2E400C2F20000B5
:1005B000002101707047000010B582B000F0AAFF62
:1005C00040F28001C2F200010A6840F2E404821A9B
:1005D0000A2AC2F2000417D3086021780020009094
:1005E0000190084600291CBF01206FF00B018DF817
:1005F00000008DF8010040F201208DF80210C0F2D9
:1006000002106946FFF78AFF2078022819D00128D6
:1006100026D018BB0024C4F2020420461021012277
:1006200000F072FF20462021012200F06DFF40F211
:100630002020C2F20000006800214163816302B003
:1006400010BD0024C4F2020420461021012200F053
:100650005BFF20462021012200F056FF02B010BDB2
:1006600040F22020C2F20000006800214163816353
:1006700002F026FB02B010BD40F2E401C2F200011C
:100680000870704790F82020013A012A04D80068C9
:1006900000F11402002004E000F1240201204FF4D4
:1006A00080211368194311607047000010B590F85D
:1006B00020E0D0F800C0AEF1010EBEF1010FDCF871
:1006C00008E00ED81EF0E05F11D0CEF3016E0120DD
:1006D00000FA0EF018608B687BB1486843EAC003EB
:1006E0000DE000F1240101204FF4802223E000F10D
:1006F000240101204FF400121DE008684305D1E9F0
:10070000030403430CEB0E10C0F88031C0F88441A1
:10071000097D012905D100F5C2710B6843F480738E
:100720000B605168C0F88C11126800F5C071C0F8F8
:100730008821002001220B681A430A6010BD0000C6
:10074000B0B590F82020013A012A2FD846F2006077
:10075000C4F20000026842F001020260026822F462
:100760007C520260D1F814E0CC694A6A0368012C1B
:1007700043EA022202600EF01F024FF0010303FA67
:1007800002F2C3696FEA020C23EA0203C36113D0C9
:100790002CBBC36803EA0C03C360CB688C8844EAB3
:1007A000034300EBCE0423640B4611E0416A41F49D
:1007B000802141620120B0BDC3681343C3600B6850
:1007C0008C8844EA034300EBCE04236401F10C035C
:1007D0008C681B8843EA044300EBCE0463644368DF
:1007E0008D6943EA0204D1F810E0096A002D08BFC0
:1007F00003EA0C0444604369BEF1000F43EA0204BB
:1008000008BF03EA0C040129446102D1C169114304
:10081000C161016821F0010101600020B0BD00004C
:100820007047000010B590F82040013C012C0AD818
:10083000046871B12469A4070ED100F124010120DC
:100840004FF4001276E000F1240101204FF48022E1
:1008500070E0E468A40771D0046804EB011CDCF8C4
:10086000B0410CF5D87E14F004049460DCF8B0417B
:1008700019BFE4085460640D1460DEF800400CF504
:10088000DA7E04F00204D460DCF8B44124075ABFD5
:10089000DEF8004004F00F0408241461DEF8004084
:1008A0000029C4F307249461DEF800404FEA1444A1
:1008B0005461DCF8B8211A70026802EB0112D2F818
:1008C000B8214FEA12225A70026802EB0112D2F8E4
:1008D000B8214FEA12429A70026802EB0112D2F874
:1008E000B8214FEA1262DA70026802EB0112D2F804
:1008F000BC211A71026802EB0112D2F8BC214FEA46
:1009000012225A71026802EB0112D2F8BC214FEA9E
:1009100012429A71026802EB0112D2F8BC214FEA2E
:100920001262DA71006814BF00F1100100F10C01CD
:10093000002020220B681A430A6010BD00F1240138
:1009400001204FF40012F5E72DE9F04F81B0044685
:1009500000684669D0F804908768D0F80CB0D0F8E9
:1009600010A0D0F81880F10703D1002530071CD45F
:1009700023E0F90710D00121BA07816009D4780774
:1009800000F1AA80380700F1B080204600F07CFA20
:1009900002E0204600F07AFA0025F80500F1848094
:1009A000F80300F1AA80300707D51BF0100004D02F
:1009B000206845F400751021C160700708D51BF050
:1009C000080005D020680821C160204600F09EF98B
:1009D000B00706D52068C068800702D0204600F026
:1009E00097F9700607D51AF0100004D0206845F476
:1009F000806510210161B00608D51AF0080005D005
:100A0000206808210161204600F00AFAF00606D5A8
:100A100020680069800702D0204600F003FAB00386
:100A200008D519F0100005D020681021416020463B
:100A300000F0FAF9F00308D519F0080005D0206895
:100A400008214160204600F02BFA300440F18F80ED
:100A50005FEA497040F1888006F4807008EA10204F
:100A600028435FEA8871014648BF41F00201B205A0
:100A700058BF01465FEA48700D4648BF45F004057F
:100A8000700558BF0D4630056ED518F070006BD05C
:100A900010380009052862D8DFE800F003535659E2
:100AA0005C5F45F008055AE020684FF48071BA0594
:100AB00081600AD4780512D4380519D4204600F094
:100AC000E7F9F8037FF56FAF17E0204600F0E2F991
:100AD000F8037FF568AF10E04FF400655DE705F5BA
:100AE0000055F8037FF55FAF07E04FF4805554E7FA
:100AF00005F58045F8037FF556AF20684FF4803147
:100B0000BA0381600AD478030FD4380313D4204683
:100B100000F0C2F930073FF548AF4EE7204600F03D
:100B2000BDF930073FF541AF47E705F50045300710
:100B30003FF53BAF41E705F5803530073FF535AF71
:100B40003BE745F010050AE045F0200507E045F0D9
:100B5000400504E045F0800501E045F4807520681B
:100B6000816921F0700181612068042141602DB10B
:100B7000606A284360622046FFF752FE01B0BDE87C
:100B8000F08F0000B0B5C8B1044690F8200010B94D
:100B9000204600F071F82068016841F00101016011
:100BA00000F0B8FC054600BF20684168C90707D1BE
:100BB00000F0B0FC401B0B28F6D312E00120B0BDC2
:100BC000016821F00201016000F0A4FC054600BFAD
:100BD0002068416889070DD500F09CFC401B0B285C
:100BE000F6D3606A052140F400306062012084F889
:100BF0002010B0BD217E0268012922F0800208BFCA
:100C000080320260617E0268012922F0400208BF42
:100C100040320260A17E0268012922F0200208BF52
:100C200020320260E17E0268012922F0100218BF22
:100C300010320260217F0268012922F0080208BFF9
:100C400008320260617F0268012922F0040208BFB5
:100C500004320260D4E901C2D4E9033561691A4360
:100C60002A431143ACF101021143C161002001216B
:100C7000606284F82010B0BD80B586B046F20041B5
:100C80000068C4F20001002288420592CDE90322E7
:100C90000292019201D006B080BD43F6300000926E
:100CA000C4F20200036943F000730361036903F0B7
:100CB00000730093009B0092036843F001030360FC
:100CC000006800F00100009000984FF4C0500190BF
:100CD0000220CDE90202032004900920059001F5CD
:100CE000CE3001A900F03AFB14200521002200F0CB
:100CF000CDFC142000F0BAFC15200521002200F0E4
:100D0000C5FC152000F0B2FC06B080BD70470000A5
:100D1000B0B5016846F60002C4F2000291424AD022
:100D200046F20042C4F20002914254D140F27805EA
:100D300040F29804C2F200050121C2F2000440F220
:100D400090032970C2F2000300212246FFF76AFDDA
:100D5000002818BFB0BDD4E9010240F20111042AF5
:100D6000C0F2021133D101F5807398422FD140F2C5
:100D7000C001C2F20001002004220823C1E90102DF
:100D800040F2B802C1E90303C2F2000244F64F3355
:100D90000875C2E9003040F2F00040F2D803C2F218
:100DA0000000C2F20003FFF781FC0120287001203F
:100DB000FFF762FCB0BD40F2980240F29003C2F22D
:100DC0000002C2F200030021FFF72CFD03E0042A19
:100DD00008BF884200D0B0BD40F2C001C2F200019D
:100DE000002408220420C1E9034240F2B802C1E90C
:100DF0000140C2F2000244F64F30C2E9000440F262
:100E0000F00040F2D803C2F20000C2F200030C75F9
:100E1000FFF74CFC02202C70FFF72EFCB0BD000049
:100E2000704700007047000070470000B0B50446EE
:100E300090F8200001281DD1022084F820002068AD
:100E4000016821F00101016000F064FB054600BF6C
:100E500020684068C00713D000F05CFB401B0B28E3
:100E6000F6D3606A40F400306062052084F8200008
:100E70000120B0BD606A40F4002060620120B0BD76
:100E800000206062B0BD00007047000070470000A5
:100E90007047000070470000704700007047000076
:100EA0007047000070B5866D044600F033FB94F87F
:100EB0003510022925D105462068216C026822F0F0
:100EC00016020260426922F08002426109B9A16CF7
:100ED00019B1016821F008010160016821F00101E8
:100EE000016000BF20680068C0070ED000F012FB50
:100EF000401B0628F6D320206065032084F83500C7
:100F00000CE080206065012008E0E06D3F2101FADF
:100F100000F0B060012084F835000020002184F842
:100F2000341070BD90F83510022909D1052180F8E0
:100F300035100068016821F0010101600020704750
:100F40008021416501207047F0B581B00446002042
:100F5000009040F20000C2F200000268D4E916607E
:100F600048F2B51337680821C1F64E338140394243
:100F7000A2FB03250CD0226813685B0708D5136811
:100F800023F004031360B160616D41F001016165FC
:100F900001218140394208D022685269120604D5E5
:100FA000B160616D41F00201616504218140394207
:100FB00008D022681268920704D5B160616D41F0D3
:100FC0000401616510218140394215D02068026812
:100FD000120711D5B16002680168520306D4C90531
:100FE00006D4016821F00801016001E0080340D443
:100FF000216C09B120468847E16D202000FA01F2FA
:101000003A4242D020680368DB063ED5B26094F8CD
:1010100035300268052B1CD122F0160202604269AD
:1010200022F080024261226C0AB9A26C1AB10268F5
:1010300022F0080202603F208840B060012084F85E
:101040003500216D0020002984F834003DD101B025
:10105000F0BD0168520310D4C90512D4016821F013
:1010600010010160012084F83500002084F834006C
:1010700007E0A16C0029BDD1BEE7080301D4616C73
:1010800000E0E16B09B120468847606D0028DED0A2
:10109000606DC00716D0052084F835002068A90AC5
:1010A000026822F001020260009A01328A42009234
:1010B00002D80268D207F7D1012084F83500002059
:1010C00084F83400E16C0029C1D02046884701B083
:1010D000F0BD00002DE9F041044600F01BFAC4B158
:1010E0000546022084F835000020216884F8340089
:1010F000086820F00100086020680168C9070BD06B
:1011000000F008FA401B0528F6D90321202203200D
:101110007BE00120BDE8F081016848F23F02CFF298
:101120001002D4E9013501EA020ED4E9032143EAB1
:101130000E032B43D4E9056C1A431143D4E9077815
:10114000314341EA0C02616A3A43042942EA080346
:1011500004D1D4E90B271A4342EA0703036042692A
:10116000042922F0070241EA02012DD1D4E90A53F1
:1011700041EA050143B3BCF5005F08D0BCF1000FA4
:1011800012D1022D16D0012D07D09DB119E0032DEB
:1011900017D8DFE805F00B0F0B02A3F1C072B2FA0B
:1011A00082F252094AB90FE0032D02D2012222B97C
:1011B0000AE006D1C3F3006232B1012140220120CE
:1011C00023E00022002AF8D16FF00F024AF6AB2389
:1011D00052FA80F2CAF6AA23A2FB033744F66C4304
:1011E00041613909C0F60003595C40F2FF3398436E
:1011F0005F2A4FF03F0288BF0430C4E9160102FAAB
:1012000001F18160002201210020626584F835101F
:10121000BDE8F08170B590F834C0BCF1010F45D045
:101220004FF0010C80F834C0D0F858E090F835C089
:10123000BCF1010F37D14FF0020C80F835C04FF0F0
:10124000000CC0F854C0D0F800C08468056CC06DB4
:10125000DCF80060402C26F48026CCF80060CCF846
:1012600004300B4604BF13460A463F2101FA00F042
:10127000CCF80830CCF80C20CEF80800DCF80000E0
:1012800040F01600CCF800002DB1DCF8000040F072
:101290000800CCF80000DCF8000040F00100CCF8B9
:1012A0000000002070BD002180F83410022070BDC5
:1012B000B0B5044600F02EF9054640F20400C2F233
:1012C00000000078611C18BF044400BF00F022F940
:1012D000401BA042FAD3B0BD10B5B0F5806F2DD140
:1012E00040F27800C2F200000121017040F60000D7
:1012F000C4F202004FF4806100F000F9044600F0EF
:1013000009F940F28801C2F20001012C04BF086013
:1013100010BD0968401AB0F57A7F06D340F2F82074
:10132000C2F200000221017010BD322838BF10BD8A
:1013300040F2F820C2F200000121017010BD00004F
:1013400080B543F61441C4F201010A68024208BFA5
:1013500080BD0860FFF7C0FF80BD00002DE9F04FA1
:1013600082B000F13E4241F6004502F1FF77C4F23F
:10137000020508224FEAB726A84208BF0722072E17
:1013800038BF4FEAB7224FF0010A002400274FF080
:101390000009009209E000BF09F101090437B9F121
:1013A000100F04F1020400F0A6800A680AFA09FC92
:1013B00012EA0C08F0D0D1F804B00BF0030AAAF13D
:1013C0000102012A12D882680323CE6803FA04FEC0
:1013D00022EA0E02A640324382604268CBF3001636
:1013E00022EA0C0206FA09F632434260BAF1030F10
:1013F0001DD0C26803238D6803FA04F6B24305FAD0
:1014000004F63243BAF1020FC26010D16FF003024A
:1014100002EA59020244D2F820C007F01C050F234B
:101420000E69AB402CEA0303AE40334313620268FB
:1014300003234E68A3409A4306F00303A3401A43D4
:1014400016F4403F4FF0010A0260A5D0002243F697
:1014500044030192C4F202031A6843F6004E42F4B8
:1014600080421A601A68C4F2010E02F480420192AE
:10147000019A29F003024FF6084C7244CFF6FF7C24
:1014800052F80C3007F00C060F25B540AB43009D19
:1014900005FA06F6334342F80C30DEF808204B68B4
:1014A00042EA080643F60C4CDD0258BF22EA080661
:1014B000CEF80860C4F2010CDCF800209D0242EA7C
:1014C000080658BF22EA0806CCF80060DEF80420BF
:1014D0009D0342EA080658BF22EA0806CEF80460D7
:1014E000DEF80020DB0342EA080658BF22EA0806BD
:1014F000CEF8006050E702B0BDE8F08F0069084008
:1015000018BF012070470000002A08BF090481614C
:101510007047000044F20C00C2F2000000687047FF
:1015200040F2040044F20C01C2F20000C2F20001D9
:1015300000780A68104408607047000080B543F6E0
:101540000040C4F20200016841F4007101600168CA
:1015500041F480610160016841F480710160032001
:1015600000F0C0F80F2000F005F800F05BF8002054
:1015700080BD000070B586B0002543F6400101959E
:10158000C4F202010A68044642F020020A600968B7
:1015900001A801F0200101910199694600F062F96A
:1015A000049E002E18BF012600F07CF94DF68361E1
:1015B000B040C4F21B31A0FB01014FF0FF3000EB43
:1015C000914140F2682041F20042C2F20000C4F2B0
:1015D000000240F2E733C0E90021C0E9025305618F
:1015E000856100F0BFFB0546C0B940F26820C2F239
:1015F000000000F01BFC054680B9372000F036F8EB
:101600000F2C0AD837202146002200F03FF840F284
:101610000800C2F20000046000E00125284606B080
:1016200070BD000080B582B0002043F640010190FB
:10163000C4F202014A6842F480424A604A6802F4F5
:1016400080420192019A00900868002240F0805088
:10165000086008680F2100F08050009000986FF03B
:10166000010000F013F802B080BD0000002848BF60
:10167000704700F01F01012202FA01F14EF2001240
:101680004009CEF2000242F82010704710B54EF625
:101690000C5CCEF2000CDCF80030C3F3022E8EF0AE
:1016A0000704042C28BF0424BEF103034FF0FF3EBF
:1016B0000EFA04F438BF0023A14399400EFA03F355
:1016C0009A4300F00F03043B1143634409010C33B8
:1016D00000F16042B0F1FF3FC8BF02F564431970EA
:1016E00010BD00004EF60C51CEF200010A684FF614
:1016F000FF031A4060F30A2242F0806040F0FD7060
:10170000086070472DE9F041002800F08B8043F617
:101710000808C4F202080446D8F8F8030D4600F0A1
:101720000700884207D288F8F853D8F8F80300F089
:101730000700A84276D12068810717D5410705D553
:10174000D8F8001041F4E051C8F80010010705D5A1
:10175000D8F8001041F46041C8F80010D8F8001023
:10176000A26821F0F0011143C8F80010C0073FD172
:10177000D8F8F80300F00700A84207D988F8F85312
:10178000D8F8F80300F00700A8424BD120684107C1
:1017900007D5D8F80010E26821F4E0511143C8F8E9
:1017A0000010000708D5D8F80000216920F4604037
:1017B00040EAC100C8F8000000F09CF8D8F800101A
:1017C00044F65442C1F30311C0F60002515C40F2EA
:1017D000000220FA01F140F20800C2F200000068A5
:1017E000C2F200021160FFF7C5FE0020BDE8F081E3
:1017F0006068811E022907D258F8081C89015CBF65
:101800000120BDE8F08110E0012807D158F8081C3C
:1018100089035CBF0120BDE8F08106E058F8081C90
:10182000890702D40120BDE8F081D8F8001021F02A
:1018300003010843C8F80000FFF76CFE064641F2BA
:10184000883700BFD8F80000616800F00C00B0EBEA
:10185000810F8DD0FFF75EFE801BB842F2D90320C6
:10186000BDE8F0810F22026043F60802C4F20202D2
:10187000136803F003034360136803F0F00383600D
:10188000136803F4E053C360D2F800C04FF4E05390
:1018900003EADC030361D2F8F80300F007000860F4
:1018A0007047000040F2000043F60801C2F2000059
:1018B000C4F202010068096844F66442C1F382215F
:1018C000C0F60002515CC8407047000040F20000C2
:1018D00043F60801C2F20000C4F202010068096880
:1018E00044F66442C1F34231C0F60002515CC84084
:1018F0007047000010B543F60404C4F202046068A7
:1019000000F00C0008280AD0042819BF42F2004059
:10191000C0F2F40047F64000C0F27D1010BD206810
:1019200021682368490247F64001C0F27D1100F0AA
:101930003F02C3F388105CBF42F20041C0F2F401E1
:10194000A1FB00010023FEF78FFC21680222C1F3F6
:10195000014102EB4101B0FBF1F010BD2DE9F04176
:1019600082B0002800F0A2800446007843F600060A
:10197000C007C4F2020643D0B06800F00C0004288F
:1019800005D1306880033BD56068C8BB8EE0B06885
:1019900000F00C00082802D170684002F1D465689C
:1019A000B5F5A02F0AD0B5F5803F0BD0306820F4F4
:1019B00080303060306820F4802006E0306840F4E9
:1019C00080203060306840F480303060FFF7A2FD46
:1019D000002D054611D000BF3068800310D4FFF7FA
:1019E00099FD401B6428F7D922E100BFFFF792FD63
:1019F000401B64284FF0030055D830688003F5D4AD
:101A0000207880071AD5B06810F00C0F09D0B068A4
:101A100000F00C00082840F08A807068400200F155
:101A200086803068800702D5E06801283ED13068A2
:101A3000216920F0F80040EAC100306020780007FA
:101A400038D4207840074CD4A5695DB3B06800F065
:101A50000C00082840F09E80012D27D07068E169B5
:101A600000F480028A4221D1216A00F03F028A42BA
:101A70001CD147F6C071626A0140B1EB821F15D1DB
:101A8000A26A0023CFF6FF7303EBC23200F44031A9
:101A90006FF30F02914209D1E16A00F07060B0EB80
:101AA000016F03D1002002B0BDE8F081012002B037
:101AB000BDE8F0816069002840F20000C4F24720D0
:101AC00057D00121C0F8801EFFF724FD054600BF56
:101AD000706F8007B5D4FFF71DFD401B0228F7D9B2
:101AE000A6E0306C10F080580AD100200190306CD4
:101AF00040F080503064306C00F0805001900198CC
:101B000047F20007C4F200073868C00524D43868DB
:101B100040F480703860FFF7FDFC05463868C0056A
:101B20001AD4FFF7F7FC401B0228F7D980E0E068E1
:101B3000002851D00020C4F2472001210160FFF7A6
:101B4000E9FC0546306880073FF571AFFFF7E2FC1E
:101B5000401B0228F6D96BE0A568052D50D0012D59
:101B600052D0306F20F001003067306F20F0040059
:101B70004DE00021C0F8801EFFF7CCFC054600BFF9
:101B8000706F80077FF55DAFFFF7C4FC401B022834
:101B9000F6D94DE00027C4F2472700203866FFF74A
:101BA000B9FC022D05460BD13068800158D5FFF7EE
:101BB000B1FC401B02284FF00300F5D973E700BFCA
:101BC000306880017FF56EAFFFF7A4FC401B022850
:101BD0004FF00300F4D966E70020C4F2472000214B
:101BE0000160FFF797FC0546306880077FF526AF58
:101BF000FFF790FC401B02284FF00300F4D952E796
:101C0000306F40F004003067306F40F00100306703
:101C1000FFF780FC002D054641F2883714D000BF45
:101C2000306F800713D4FFF775FC401BB842F7D91B
:101C3000032002B0BDE8F081FFF76CFC401BB84206
:101C40004FF003003FF62FAF306F8007F4D4B8F1A8
:101C5000000F7FF4F9AE306C20F080503064F3E672
:101C600004F11C052FCD08430021CFF6FF7140EA97
:101C7000821001EBC3316FF30F0140EA05600843A6
:101C8000706001203866FFF745FC0446306880012B
:101C90003FF508AFFFF73EFC001B02284FF00300A2
:101CA000F4D900E7704700007047000010B590F8C5
:101CB0003C20012A4FF0020252D0012380F83C3030
:101CC00080F83D200268D2F804E0D2F808C00C6821
:101CD0002EF07003234341F2FF74C4F20004A242C9
:101CE00053600DDC40F2FF73C4F200039A4215DC2E
:101CF000B2F1804F29D040F20043C4F2000322E049
:101D000040F2FF33C4F201039A4212DC41F60003B1
:101D1000C4F200039A4218D0002312E040F60003F8
:101D2000C4F200039A4210D040F60043C4F200030C
:101D300009E044F20003C4F201039A4205D040F2E4
:101D40000043C4F201039A4204D149682CF0800395
:101D5000194391600121002280F83D1080F83C2059
:101D6000104610BD002804BF0120704710B504467E
:101D700090F83D0028B9002084F83C00204600F08F
:101D80001FF8022084F83D002068211D01F0F6FABA
:101D9000012084F8460084F83E0084F83F0084F86F
:101DA000400084F8410084F8420084F8430084F83D
:101DB000440084F8450084F83D00002010BD000078
:101DC00080B582B0006840F20041C4F20001884250
:101DD0001BD0B0F1804F27D10020019043F6400086
:101DE000C4F202000168002241F0010101600068B4
:101DF000052100F00100019001981C20FFF746FC2E
:101E00001C20FFF733FC02B080BD0020009043F699
:101E10004000C4F20200016841F002010160006864
:101E200000F002000090009802B080BD90F83D10D4
:101E300001291CBF01207047022180F83D10006875
:101E400041F2FF72C168C4F20002904241F0010108
:101E5000C1600DDC40F2FF71C4F20001884215DC64
:101E6000B0F1804F29D040F20041C4F2000122E0DD
:101E700040F2FF31C4F20101884212DC41F6000158
:101E8000C4F20001884218D0002112E040F600019F
:101E9000C4F20001884210D040F60041C4F20001B3
:101EA00009E044F20001C4F20101884205D040F289
:101EB0000041C4F20101884206D1816801F00701A6
:101EC000062904BF00207047016841F0010101604C
:101ED0000020704780B590F83C20012A4FF00202A4
:101EE00000F0C280012380F83C3080F83D20D0F81B
:101EF00000C04FF67772DCF8083023EA0202CCF813
:101F000008200B684F2B28DC1F2B43DD202B44D0EF
:101F1000302B42D0402B40F0A980D1F804E0C968B2
:101F2000DCF82030DCF8202022F00102CCF8202060
:101F3000DCF8182022F0F00242EA011123F00A0234
:101F400042EA0E02CCF81810CCF82020DCF8081079
:101F500041F0470121F030017DE06F2B25DDB3F525
:101F6000005F46D0B3F5805F77D0702B7ED1D1E98A
:101F700001E3C968DCF8082043EA0E0322F47F423B
:101F800043EA01211143CCF80810DCF8081041F0B5
:101F9000770160E00BB1102B68D1DCF8081021F05C
:101FA0007001194341F0070155E0502B34D0602BEC
:101FB0005CD1D1F804E0C968DCF82030DCF82020DE
:101FC00022F01002CCF82020DCF8182022F4704215
:101FD00042EA013123F0A00242EA0E12CCF81810B6
:101FE000CCF82020DCF8081041F0670121F0100146
:101FF00031E0D1E901E3C968DCF8082043EA0E03C7
:1020000022F47F4243EA01211143CCF80810DCF8A6
:10201000081041F480411EE0D1F804E0C968DCF802
:102020002030DCF8202022F00102CCF82020DCF85F
:10203000182022F0F00242EA011123F00A0242EADB
:102040000E02CCF81810CCF82020DCF8081041F073
:10205000570121F02001CCF808100022012180F85E
:102060003D10002180F83C10104680BD0122F5E7AC
:102070007047000070B504460068C5680669B1077E
:1020800016D515F0020113D06FF002010161012194
:1020900021778069800703D02046FFF7E9FF05E03C
:1020A000204600F08BF8204600F0C6F9002020778B
:1020B000700718D515F0040015D020686FF00401E2
:1020C000016102212177806910F4407F03D020460E
:1020D000FFF7CEFF05E0204600F070F8204600F044
:1020E000ABF900202077300717D515F0080014D081
:1020F00020686FF00801016104212177C069800721
:1021000003D02046FFF7B4FF05E0204600F056F864
:10211000204600F091F900202077F00618D515F040
:10212000100015D020686FF010010161082121779F
:10213000C06910F4407F03D02046FFF799FF05E007
:10214000204600F03BF8204600F076F9002020778A
:10215000F00718BF15F0010002D1300609D412E0D3
:1021600020686FF001010161204600F0FFF93006A0
:1021700009D515F0800006D020686FF0800101615C
:102180002046FFF78FFD700609D515F0400006D0F8
:1021900020686FF040010161204600F0F7F9B006B9
:1021A0000AD515F0200008BF70BD20686FF020012F
:1021B00001612046FFF778FD70BD00007047000008
:1021C0002DE9F04190F83C30012B04BF0220BDE81E
:1021D000F0814FEAB2020123032A80F83C3000F27A
:1021E000F480DFE802F0023E7DBC036840F2004765
:1021F0001C6A1A6A24F0020422F001021A621A46CA
:10220000D3F804E052F818CF8E6843F48065C4F226
:102210000107BD4244EA060405D1CE6824F00C044F
:1022200026F0040634430E68BD4207D1D1E90557B4
:102230002EF4407E45EA0E0545EA070E2CF07307A2
:102240003743C3F804E09F614F6809695F631C620C
:102250009F6947F008079F619F6927F004079F6106
:10226000AFE0036840F200481C6A1A6A24F02004B8
:1022700022F010021A621A46D3F804E052F818CF7E
:102280008F6843F48065C4F20108454544EA0714A9
:1022900007D1CF686FF0400624F0C00406EA0716A5
:1022A00034430F68454507D1D1E905562EF4406EF9
:1022B0004EEA850545EA860E2CF4E64646EA0727EF
:1022C000C3F804E09F614F6809699F631C629F69BE
:1022D00047F400679F619F6927F480679F616FE003
:1022E000036840F200481C6A1A6A24F4007422F45D
:1022F00080721A621A46D3F804E052F81CCF8F6835
:1023000043F48065C4F20108454544EA072408D136
:10231000CF6840F2FF463F0224F4406427EA0606F5
:1023200034430F68454507D1D1E905562EF4405E88
:102330004EEA051545EA061E2CF073063743C3F82E
:1023400004E0DF614F680969DF631C62DF6947F001
:102350000807DF61DF6927F00407DF6131E0036808
:1023600040F20045D3F820C01A6A43F4806722F493
:1023700080521A621A465C6852F81CEFD1F800804D
:102380008E68C4F20105AF4204D14D6924F4804443
:1023900044EA85142CF4005747EA06372EF4E64643
:1023A00046EA08265C60DE614E6809691E641F62A9
:1023B000DF6947F40067DF61DF6927F48067DF6169
:1023C00009021368194300231160002180F83C10B2
:1023D0001846BDE8F0810000002804BF01207047C6
:1023E00010B5044690F83D0028B9002084F83C0060
:1023F000204600F01FF8022084F83D002068211DCF
:1024000000F0BCFF012084F8460084F83E0084F808
:102410003F0084F8400084F8410084F8420084F8CA
:10242000430084F8440084F8450084F83D0000200F
:1024300010BD0000704700007047000041B108293E
:1024400009D0042914BF00F1410200F13F0204E069
:1024500000F13E0201E000F140021278012A1CBFA7
:1024600001207047022241B1082909D0042914BF74
:1024700080F8412080F83F2004E080F83E2001E011
:1024800080F84020006801F01F010122036A02FA6F
:1024900001F123EA01020262026A0A4341F2FF717A
:1024A000C4F20001884202620FDC40F2FF71C4F204
:1024B0000001884217DCB0F1804F49D040F2004162
:1024C000C4F20001884243D049E040F2FF32C4F236
:1024D0000102904214DC41F60003C4F2000398426A
:1024E00036D0002314E040F60001C4F20001884217
:1024F0002ED040F60041C4F20001884228D02EE0E0
:1025000044F20003C4F20103984221D040F2004398
:10251000C4F20103984222D1436C884243F4004341
:102520004364C2DD904207DC41F60001C4F20001C1
:1025300088420DD0002107E044F20001C4F20101FD
:10254000884205D040F20041C4F20101884206D120
:10255000816801F00701062904BF00207047016867
:1025600041F00101016000207047000010B50446F1
:10257000006841F20041C4F20001884208BFFEF742
:10258000CFFF204600F090FF10BD00007047000014
:1025900070B582B0044690F84200202822D100296C
:1025A0004FF0010518BF002A1DD001250026204646
:1025B0002563666301F026F9216B012913D1019689
:1025C00021680A680192496801910199216851E8DE
:1025D000031F226841F0100142E80313002BF5D1DC
:1025E000054600E00225284602B070BD80B50068AF
:1025F00041F20002C4F20102904218BF80BD40F2D5
:10260000983CC2F2000C9CF80020FF2A15D1022948
:1026100013D340F278030122C2F2000304E000BFAA
:102620000132D0B2884208D2D0B21CF80000012892
:10263000F6D1187801301870F2E740F2B02040F27D
:102640009831C2F20000C2F200016422FFF7A0FF3D
:1026500080BD000070470000B0B582B0044600683D
:102660000168C368426901F02F05202D03F02005A1
:1026700005D125B1204600F0F1FF02B0B0BD5FEA00
:10268000017C1EBF02F0010E03F4907212EB0E02E9
:1026900079D1226B012A05D111F0100218BF13F075
:1026A000100235D10A0622D513F080021FD094F80B
:1026B000411021292AD1A168B1F5805F03D1216998
:1026C000002900F04881216A4A1C22620978416091
:1026D000E18C01390A04E18418D1C16821F080013C
:1026E000C160C16841F04001C16002B0B0BD49069F
:1026F0000CD513F0400109D0C16821F04001C16040
:10270000202084F84100204600F0D6FA02B0B0BD87
:10271000002101910168019141680191019940698D
:10272000400638D4A08DE18DE28D002A1CBF401AEE
:102730005FEA0041EAD000BF216851E8031F226828
:1027400021F4907142E80313002BF5D1216851E880
:10275000051F226821F0010142E80513002BF5D185
:10276000202184F842100021216300BF216851E834
:10277000031F226821F0100142E80313002BF5D15A
:10278000022161634CE0C80718BF13F4807059D16F
:1027900048075DD463E0E06B016849688AB2002AAB
:1027A00040D0A38D9A423DD2E185C069B0F5807FCB
:1027B00031D000BF206850E8030F216820F48070FA
:1027C00041E80302002AF5D1206850E8050F21688E
:1027D00020F0010041E80502002AF5D1206850E808
:1027E000050F216820F0400041E80502002AF5D1DC
:1027F000202084F842000020206300BF206850E8B9
:10280000030F216820F0100041E80302002AF5D1EF
:10281000E06BFEF747FB02206063A08DE18D401A5C
:1028200081B20AE0A18D91427FF470AFC069B0F52A
:10283000807F7FF46BAF022060632046FFF7D6FEF7
:1028400002B0B0BD606C40F001006064480706D57E
:10285000BEF1000F03D0606C40F002006064880796
:1028600006D5BEF1000F03D0606C40F00400606438
:10287000BCF1000F06D555EA0E0003D0606C40F0A5
:1028800008006064606C00283FF440AF11F0200045
:1028900018BF002D02D0204600F0E0FE20684069FD
:1028A000616C00F0400001F00801401847D000BF03
:1028B000206850E8030F216820F4907041E803027B
:1028C000002AF5D1206850E8050F216820F00100AA
:1028D00041E80502002AF5D1206B01280AD100BF8A
:1028E000206850E8030F216820F0100041E803023F
:1028F000002AF5D1202084F84200002020632068BF
:102900004069400622D500BF206850E8050F2168C5
:1029100020F0400041E80502002AF5D1E06BA8B1A3
:1029200043F20151C0F600010165FEF7FBFA0028F1
:102930003FF4ECAEE06B016D884702B0B0BD2046BD
:10294000FFF788FE0020606402B0B0BD2046FFF7AC
:1029500081FE02B0B0BD216A31F8022B6FF35F2215
:1029600042602162B4E60000002804BF01207047E5
:1029700010B5044690F8410028B9002084F84000C2
:10298000204600F021F8242084F841002068C16826
:1029900021F40051C160204600F0C4FE20680169A6
:1029A00021F490410161416921F02A014161C1682E
:1029B00041F40051C16000202021606484F841107E
:1029C00084F84210606310BD2DE9F04F87B00025F8
:1029D0000446C4F202050068A5F57041002788424C
:1029E000CDE90577CDE90377029702D007B0BDE8BE
:1029F000F08F43F630000197C4F20200416902AE45
:102A000041F01001416141694FF0020A01F01001EB
:102A100001910199019701684FF0030B41F0010109
:102A2000016000684FF0070800F001000190019874
:102A30004FF40070029028463146CDE903A7CDF847
:102A400014B0CDF81880FEF789FC01204FF480699E
:102A5000CDE9040BCDF8188046F2404828463146AF
:102A6000CDE9029AC4F20208FEF778FC40F278152C
:102A700008F17800C2F200054FF000664021C5E978
:102A8000000605F1080080E882022846C5E90577BE
:102A9000C5E907776F62FEF71DFB002818BFFDF739
:102AA0007FFDA563AC6340F21815C2F2000500205B
:102AB000C5E90200C5E90490C5E90600C5E90800BA
:102AC0002846C5E90086FEF705FB002818BFFDF77C
:102AD00067FD252005210022E563AC63FEF7D6FDE6
:102AE0002520FEF7C3FD07B0BDE8F08F80B590F854
:102AF0004230202B1CBF022080BD00294FF0010373
:102B000018BF002A01D1184680BD0023036300F0DE
:102B100079FE0346184680BD90F84230202B1CBF3A
:102B20000220704700294FF0010318BF002A01D18D
:102B30001846704700230363816222218285C28583
:102B4000436480F84210016921B10168CA6842F407
:102B50008072CA6000680023416941F0010141614F
:102B6000C16841F02001C1601846704780B5006817
:102B700041F20001C4F20101884218BF80BD40F259
:102B80009830C2F200000178FF290BD040F2B0204B
:102B900040F29831C2F20000C2F200010522FFF7B4
:102BA000A5FF80BD40F278020021C2F2000202E0DF
:102BB00001310529EAD0435C012BF9D113780133A7
:102BC0001370F5E7704700002DE9F04381B004462B
:102BD00090F8410020284AD1894600294FF0010091
:102BE00066D01646002A63D04FF0000821201D460B
:102BF000C4F8448084F84100FEF78CFCA684E68487
:102C0000A1680646B1F5805F05D12069002814BF90
:102C10004846C8468146E08C68B36F1C0CE0B9F1A9
:102C2000000F1BD019F8010B21684860E08C0138B7
:102C3000E084E08CF8B100BF206800680006EED4A4
:102C4000002FF9D0FEF766FC01464FF0030065B394
:102C5000891BA94229D82068C068EDE738F8020B23
:102C600021686FF35F2048604FF00009DEE7022023
:102C700001B0BDE8F08320680068400614D46F1CE2
:102C800004E000BF2068006840060DD4002FF9D092
:102C9000FEF740FC01464FF0030035B1891BA94205
:102CA00003D82068C068EDE70020202184F8411097
:102CB00001B0BDE8F083000070470000FEE70000AF
:102CC00010B50024C4F20204204610210122FEF7B0
:102CD0001BFCC820FEF7ECFA204610210022FEF76C
:102CE00013FCC820FEF7E4FA204620210122FEF75B
:102CF0000BFCC820FEF7DCFA204620210022FEF75C
:102D000003FCC820FEF7D4FA10BD000010B58AB04D
:102D100040F2F00046F2004140F2001EC2F2000014
:102D2000C4F2000100244FF400234FF4401CC0F211
:102D3000011E032280E81600C0E90343C0E905CE66
:102D40008483FDF71FFF002818BFFDF729FC012031
:102D50000890CDE9060042F22000CDE9000446F2D9
:102D600020000E21CDE9020440F2F0000991C2F2E8
:102D700000006946CDE90444FDF7E2FC002818BFD5
:102D8000FDF70EFC40F2F000C2F20000FEF74EF834
:102D9000002818BFFDF704FC40F2F000C2F200006A
:102DA0000221FDF76FFC002818BFFDF7F9FB0AB000
:102DB00010BD000080B582B00020019043F63000C5
:102DC000C4F202000168002241F480010160006841
:102DD000052100F48000019001983A20FEF756FC8E
:102DE0003A20FEF743FC462005210022FEF74EFC68
:102DF0004620FEF73BFC02B080BD000010B5A4B039
:102E000044F63840C0F6000090E80E50D0E9054086
:102E10001D91CDE922401DA800211E921F93CDF8DF
:102E200080C0CDF884E000F011FE40F2E801C2F26B
:102E30000001086044F61C40C0F6000090E81E50F7
:102E4000806916911C9016A8002117921893199466
:102E5000CDF868C0CDF86CE000F0F8FD40F2E0017C
:102E6000C2F20001086044F6C830C0F6000090E8E5
:102E70001E5080690F9115900FA800211092119398
:102E80001294CDF84CC0CDF850E000F0DFFD40F2D8
:102E90007C01C2F20001086044F6E430C0F6000094
:102EA00090E81E50806908910E9008A800210992B0
:102EB0000A930B94CDF830C0CDF834E000F0C6FD95
:102EC00040F28401C2F20001086044F60040C0F6FE
:102ED000000090E81E5080690191079001A8002130
:102EE000029203930494CDF814C0CDF818E000F0DA
:102EF000ADFD40F28C01C2F20001086024B010BDAB
:102F000070B586B0002543F630000595CDE9035530
:102F1000CDE901550095C4F202000168002441F09A
:102F2000800101600168C4F2020401F08001009197
:102F3000009900950168002241F0010101600168DB
:102F40004FF4987601F00101009100990095016815
:102F500041F00401016000684FF4987100F0040032
:102F6000009000982046FEF7CFFA0220CDE9030535
:102F700001AD01960126204629460296FEF7EEF99C
:102F80004FF4806001904FF40410CDE9020604F57F
:102F900000602946FEF7E2F9282005210022FEF70D
:102FA00075FB2820FEF762FB06B070BD80B586B0C9
:102FB00040F2D8100021C2F200004FF080425323AB
:102FC00040F2CF7CCDE90411CDE90211CDE9001129
:102FD000C0E90023C0E9021C01618161FEF7C2FE65
:102FE000002818BFFDF7DCFA4FF48050029040F241
:102FF000D810C2F2000002A9FEF76CFF002818BF2B
:10300000FDF7CEFA0020CDE9000040F2D810C2F260
:1030100000006946FEF74AFE002818BFFDF7C0FA17
:1030200040F2D810C2F20000FEF700FF002818BFDF
:10303000FDF7B6FA06B080BD70B594B040F220201E
:1030400040F200450021C2F2000040F2E733C4F232
:1030500000050D91CDE90B11CDE90911CDE907115D
:10306000CDE90511CDE90311CDE901115322C0E9E4
:10307000021301618021C0E900528161FEF772FEF6
:10308000002818BFFDF78CFA4FF480500A9040F2E8
:103090002020C2F200000AA9FEF71CFF002818BF7A
:1030A000FDF77EFA40F22020C2F20000FFF794F90B
:1030B000002818BFFDF774FA40F220200024C2F265
:1030C000000008A9CDE90844FEF7F0FD002818BF6C
:1030D000FDF766FA6020CDE9010440F22020C2F23B
:1030E000000001A9002203940594FFF769F8002865
:1030F00018BFFDF755FA40F22024C2F2000401A9DE
:1031000020460422FFF75CF8002818BFFDF748FAB4
:10311000204600210026FFF791F920460421FFF701
:103120008DF920681396A842CDE9116610960F9686
:1031300001D014B070BD43F630000E96C4F2020008
:10314000016841F00101016000680FA900F0010071
:103150000E900E98C0200F900220CDE91006CDE908
:10316000126005F5FE30FEF7F9F814B070BD0000EE
:1031700080B540F2B02041F20001C2F20000C4F27A
:10318000010100234FF00C0C4FF4E13280E80E00F7
:10319000C0E90333C0E905C3C361FFF7E5FB0028BD
:1031A00018BFFDF7FDF980BDFEE70000FEE7000057
:1031B000EFF30980BFF36F8F154B1A681EF0100FE5
:1031C00008BF20ED108A20E9F04F10602DE90900BA
:1031D0004FF0500080F31188BFF34F8FBFF36F8F14
:1031E00001F032F84FF0000080F31188BDE80900CB
:1031F00019680868B0E8F04F1EF0100F08BFB0EC77
:10320000108A80F30988BFF36F8F704700BF00BF3B
:10321000FC02002000000000000000000000000090
:10322000074B19680868B0E8F04F80F30988BFF3CE
:103230006F8F4FF0000080F31188704700BF00BF10
:10324000FC020020012000F0F3FBFBE7012000F06E
:10325000EFFBFBE7012000F0EBFBFBE7012000F0B8
:10326000E7FBFBE7012000F0E3FBFBE780B54FF055
:10327000500080F31188BFF36F8FBFF34F8F01F0C1
:103280008DF930B14EF60450CEF200004FF080516F
:103290000160002080F3118880BD000070B592B0FD
:1032A00006AC20463021FDF757F8002543F64000D4
:1032B0000595CDE90355CDE901550095C4F202000D
:1032C0000168022641F080510160006800F08050E2
:1032D0000090009847F200000095C4F200000168D9
:1032E00041F480410160006800F480400090009843
:1032F000012006904FF4803007904FF480000D902D
:1033000019200E904FF4A870CDE90F0604201190FB
:1033100020460C96FEF722FB08B172B6FEE70F209E
:10332000CDE901064FF4A05004904FF48050059071
:1033300001A805210395FEF7E5F910B172B600BFAB
:10334000FEE712B070BD00004EF68850CEF20000CD
:10335000016841F4700101607047000080B540F2DF
:10336000D810C2F20000FEF785FE80BD80B540F2A5
:103370006820C2F20000FEF77DFE80BDB0B540F6C9
:10338000FF3E0568C4F2000E40F2004C7045C4F2E6
:10339000010C0FDCB0F1804F19D040F20043C4F2B1
:1033A0000003984213D040F60003C4F20003984291
:1033B0000DD011E040F60043C4F20003984206D05D
:1033C000604504D00023C4F20103984204D14B6845
:1033D00025F0700243EA020541F6FF73C4F20003D0
:1033E00098420DDC70451FDCB0F1804F41D040F2B7
:1033F0000043C4F2000398423BD040F6000321E0B2
:1034000043F6FF73C4F20103984220DC42F200034A
:10341000C4F2000398422CD00023C4F20103984266
:1034200027D0604525D029E040F60043C4F20003D0
:1034300098421ED041F60003C4F20003984218D00F
:1034400041F60043C4F20003984212D016E044F261
:103450000003C4F2010398420BD044F60003C4F207
:103460000103984205D044F20043C4F2010398429C
:1034700004D1CB6825F4407243EA02050A688C68DF
:103480004B69C46240F480648262644504BF096988
:103490000163026825F0800142F0040219430260D2
:1034A000012242610160B0BD0068B0F1804F18BFD9
:1034B000704740F2EC0CC2F2000C40F204409CF861
:1034C0000010C2F2000002880123002918BF4FF04B
:1034D000FF33134499B2CA087C2A038001D8180428
:1034E00005D100207C2A88BF01208CF8000040F222
:1034F0002020C2F200000068416381637047000031
:1035000080B5806B0021C185FFF7A4F880BD000065
:1035100080B5806B0168496990F84120212A12D159
:1035200011F080010FD00021C18400BF016851E873
:10353000031F026821F0C00142E80313002BF5D1FC
:10354000202180F841100168496990F84220222A20
:103550002BD111F0400128D00021C185016851E82C
:10356000031F026821F4907142E80313002BF5D188
:10357000016851E8051F026821F0010142E80513C6
:10358000002BF5D1016B01290AD100BF016851E878
:10359000031F026821F0100142E80313002BF5D14C
:1035A000202180F8421000210163416C41F010019C
:1035B0004164FFF74FF880BD80B50168806B0968F2
:1035C000C9052FD40021C185016851E8031F026895
:1035D00021F4807142E80313002BF5D1016851E812
:1035E000051F026821F0010142E80513002BF5D107
:1035F000016851E8051F026821F0400142E8051307
:10360000002BF5D1202180F84210016B012909D14E
:10361000016851E8031F026821F0100142E803131A
:10362000002BF5D100214163016B012903D1818D6C
:10363000FEF7DCFF80BDFFF799FA80BD80B5806B97
:1036400001214163016B012904D1818D4908FEF7F5
:10365000CDFF80BDFFF7B6FA80BD000080B582B017
:1036600090F8421022291ED18268B2F5805F02D103
:10367000016900294AD0816AB2F5805F07D00AB992
:10368000026922B10268526802F07F0201E002681A
:1036900052680A700121826A11448162C18D013928
:1036A0000A04C18501D002B080BD0168CA6822F059
:1036B0002002CA60CA6822F48072CA604A6922F095
:1036C00001024A61202180F8421000214163026B0F
:1036D000012A23D1016300BF016851E8031F02687A
:1036E00021F0100142E80313002BF5D101680A68AC
:1036F000D20606D5002201920A680192496801911A
:103700000199818DFEF772FF02B080BD0168826A67
:1037100049686FF35F2111800221BCE7FFF726FAA9
:1037200002B080BD10B504460068D4E902C2236926
:10373000016921F4405111430161626943EA0C01BE
:10374000E3691143C268194349F20C639A43114378
:10375000C1604169A26921F4407141F20043114303
:1037600040F48062C4F201039A42416102D1FEF743
:10377000ADF801E0FEF796F8E16963681922B1F54A
:10378000004FA0FB02011DD15A00DB0FFCF76CFDBE
:1037900048F21F51C5F2EB11A0FB01235A096FF04B
:1037A000630302FB0300322303EBC000A0FB010113
:1037B0004FF4F87000EA111000EB0210C1F342114F
:1037C00008441BE09A009B0FFCF74EFD48F21F5186
:1037D000C5F2EB11A0FB01235A096FF0630302FB52
:1037E0000300322303EB0010A0FB0101F02000EAEC
:1037F000511000EB0210C1F34311084421688860A6
:1038000010BD0000F0B581B0134600270446816268
:1038100083854764222084F84200E06B43F2B95567
:1038200043F23D660A462168C0F60005C0F6000670
:10383000C0E90F5643F21156C0F600060431C0E944
:103840001367FDF7E7FC38B110206064202084F88E
:103850004200012001B0F0BD00972068016800918E
:10386000406800900098206950B100BF206850E87F
:10387000030F216840F4807041E80302002AF5D16B
:10388000206850E8050F216840F0010041E805027A
:10389000002AF5D1206850E8050F216840F040006B
:1038A00041E80502002AF5D1002001B0F0BD00007A
:1038B00080B540F2B02040F29831C2F20000C2F26E
:1038C00000016422FEF764FE80BD000080B540F276
:1038D000B020C2F20000FEF7BFFE80BDFEE7000090
:1038E00080B540F2B02040F2FC31C2F20000C2F2DA
:1038F00000010122FFF710F980BD0000B0B5FDF70F
:1039000009FE40F2DC04C2F200042168401A0A28D1
:1039100038BFB0BDFDF7FEFD40F20045C2F2000524
:1039200095ED000A206000F0ABFFB2EE041A20EE25
:10393000010A40F2100195ED001A9FED0F2AC2F224
:10394000000181ED000A31EE020A9FED0C1A40F2EF
:10395000B0209FED0B2AB4EE410AC2F2000008220B
:103960000A23F1EE10FAB8BFB0EE402A85ED002A26
:10397000FFF72AF9B0BD00BFCDCC4C3DDA0FC940EE
:1039800000000000FDF7DAFDFFF788FCFFF7B8FA4A
:10399000FFF710FAFFF70AFBFFF74EFBFFF7E8FB14
:1039A000FFF7B4F9FCF76CFDFFF782FF0024C4F2C7
:1039B000020420464FF480710122FDF7A5FD64202A
:1039C000FDF776FC20464FF4807100220025FDF7BC
:1039D0009BFD40F22024C2F2000420460021FEF7A5
:1039E0002DFD20460421FEF729FDFCF7DDFD00201A
:1039F000FCF742FEFFF774FFFFF700FA00F020F833
:103A000040F2F00440F27806C2F20004C2F200066E
:103A1000FCF7D2FDFFF772FF2046FDF779F9307809
:103A20000028F5D03078FCF70BFD3570F0E700008A
:103A300080B5002808BF012000F05CFB002080BD9D
:103A400080B500F0B9FB002080BD0000B0B584B0A7
:103A500043698E4693B1846984B10589D0E9001C1D
:103A6000026928B2843D18BFC51CCDE900536046E9
:103A70007346029400F026FD039010E00589D0E91A
:103A80000013028A28B2843D18BFC51C03AC184637
:103A900073460095019400F0B3FC012802D103980D
:103AA00004B0B0BD002004B0B0BD00002DE9F04767
:103AB000044600F061FA44F21000C2F2000001680E
:103AC00040F2FC2701310160C2F20007396844F27C
:103AD000D82A40F20C36C2F2000AC2F2000651B1F6
:103AE000DAF8000000283DD13868E16AC06A8842EF
:103AF00098BF3C6036E03C600068012832D1002568
:103B0000701900F0F3F914358C2DF9D144F228081E
:103B1000C2F20008404600F0E9F944F23C09C2F262
:103B20000009484600F0E2F944F2C420C2F2000065
:103B300000F0DCF944F2F820C2F2000000F0D6F9FF
:103B400044F2E420C2F2000000F0D0F940F200306C
:103B5000C2F20000C0F8008040F20830C2F200005B
:103B6000C0F8009044F21C00C2F20000016844F268
:103B7000200201310160E06AC2F2000201211368F3
:103B80008140194300EB8000116006EB8000211D8D
:103B900000F0DAF900F014FADAF8000088B13868B9
:103BA000E16AC06A884228BFBDE8F0874EF604503B
:103BB000CEF200004FF080510160BFF34F8FBFF392
:103BC0006F8FBDE8F087000044F2140540F20C3A14
:103BD0004EF6045844F2F82744F21006C2F20005EB
:103BE000C2F2000ACEF200084FF08059C2F200077C
:103BF000C2F2000603E000BF204600F0F9F9286891
:103C0000C8B100F0B9F9F868C468201D00F04EF999
:103C100030680138306028680138286000F0D0F939
:103C200094F851000228EAD00128E5D070B9206B41
:103C300000F0DEF9E0E7DAF800000228DFD3C8F888
:103C40000090BFF34F8FBFF36F8FD8E74FF0500056
:103C500080F31188BFF36F8FBFF34F8FFEE7000033
:103C600008480068006880F308884FF0000080F37F
:103C7000148862B661B6BFF34F8FBFF36F8F00DF5A
:103C800000BF000008ED00E081B00020009040F28D
:103C90000C00C2F2000000684FF0500181F311885F
:103CA000BFF36F8FBFF34F8F013001D0FEE700BF2E
:103CB00000980028FCD001B070470000F0B581B03A
:103CC000044600F0B9FA40F20431C2F2000108687B
:103CD00044F22407C2F2000780BB40F20642C2F25F
:103CE0000002D61D26F0070612F00703A2EB060518
:103CF00018BF324644F2DC26C2F200060020C6E9B4
:103D000000204FF47056002B18BF05F5705693191C
:103D1000083B23F007030B60C3E90000981A0B6807
:103D2000C2E9003044F2AC22C2F20002106044F258
:103D30005002C2F20002106001203870387800286A
:103D400018BF4FF0004020420DD0002400F0E6FCE8
:103D5000600712D04FF0500080F31188BFF36F8FCF
:103D6000BFF34F8FFEE75CB160071ABF04F110008C
:103D700020F0070304F1080303E0204601B0F0BD82
:103D80000023002B4FF00004E0D044F2500CC2F2AC
:103D9000000CDCF800008342D8D844F2DC24C2F2E4
:103DA0000004266875689D420FD232684AB100BF90
:103DB0005568344616469D4207D23268002AF7D12C
:103DC00003E044F2DC24C2F2000408688642BCD05E
:103DD000D4F800E03068EA1A112A20602FD3F418D2
:103DE000600708D04FF0500080F31188BFF36F8F49
:103DF000BFF34F8FFEE744F2DC25C2F2000562609C
:103E0000736000BF2B462D68A542FBD35A689818F3
:103E1000A04203D160681C46104458606268A01834
:103E2000A84201D0294606E009688D4203D0D5E9B1
:103E3000001010446060A342216018BF1C6044F26F
:103E4000AC217068DCF80020C2F200010B68121A85
:103E50009A42CCF8002038BF0A6038787168002890
:103E60004FF0000018BF41F00041306044F2B8202C
:103E7000C2F2000002680EF108047160511C01607A
:103E800064E70000034643F68940C0F600004FF0A7
:103E9000807C21F0010103E903106FF0020043F878
:103EA000240CA3F1440043F8202C7047D0E90132E0
:103EB00001699A60D1F804C082688445536008BFE4
:103EC0004A6000220261086801380860086870478B
:103ED00044F25823C2F20003036044F25400C2F2D9
:103EE0000000086080201060704700004FF0FF3134
:103EF000024642F8081F00214260C0E90322016027
:103F000070470000002101617047000080B5D1F8C2
:103F100000C01CF1010207D000F108039E465B6857
:103F20001A686245FAD901E0D0F810E0DEF8042002
:103F300008614A609160C1F808E0CEF80410016899
:103F40000131016080BD0000D0F800C04368086105
:103F50009A684B608A609A68996051600CF101011F
:103F600001607047DFF80C00016841F470010160E6
:103F70007047000088ED00E04FF0500080F311889A
:103F8000BFF36F8FBFF34F8F40F20C00C2F20000FF
:103F900001684A1C026001B170474EF60450CEF22F
:103FA00000000068000608BF70474FF0500080F323
:103FB0001188BFF36F8FBFF34F8F00BFFEE7000084
:103FC00040F20C00C2F20000016839B10139016011
:103FD00018BF7047002080F3118870474FF05000E1
:103FE00080F31188BFF36F8FBFF34F8FFEE70000A0
:103FF000B0B5002808BFB0BD044644F22400C2F2A8
:104000000000007854F8041C002818BF4FF000404E
:1040100008420CD0A4F108052A6892B14FF0500074
:1040200080F31188BFF36F8FBFF34F8FFEE74FF020
:10403000500080F31188BFF36F8FBFF34F8F00BF25
:10404000FEE721EA000044F8040C00F0F5F844F221
:104050005001C2F2000154F8040C0A6810440860D0
:1040600044F2DC21C2F2000108460968A942FBD3F0
:1040700042688318AB4204D154F8043C05461A4404
:1040800042606A68AB188B4201D00B460AE040F2EE
:104090000433C2F200031B68994203D0D1E9003413
:1040A000A1186960A8422B6018BF056044F2BC20CB
:1040B000C2F2000001680131016000F02FFBB0BDC9
:1040C0004EF21000CEF2000000210160816040F24B
:1040D0000001C2F20001096844F6D352C1F2620243
:1040E000A1FB02124FF0FF3101EB92114160072159
:1040F0000160704770B5002851D0044644F21800A2
:10410000C2F20000016841B14FF0500080F3118805
:10411000BFF36F8FBFF34F8FFEE7016840F2FC25BE
:104120000131016044F20C30C2F20000C2F200051D
:10413000066828680430FFF7B9FE60B9286844F2C1
:104140002002C06AC2F200020121136801FA00F0E5
:1041500023EA000010602868A419446009D340F2E3
:104160000830C2F20000006829680431FFF7CEFE73
:1041700010E040F20030C2F200000068296804310B
:10418000FFF7C4FE44F2B020C2F2000001688C4286
:1041900038BF046000F0C2FA002818BF70BD4EF6A8
:1041A0000450CEF200004FF080510160BFF34F8FFA
:1041B000BFF36F8F70BD000010B586B0002405A856
:1041C00004A903AACDE90444FFF782FEDDE9032038
:1041D00005990023CDE9010143F6C930C0F600007E
:1041E00013A1009400F06EF944F25421C2F20001D0
:1041F0000860D8B14FF0500080F31188BFF36F8F83
:10420000BFF34F8F44F2B020C2F200004FF0FF31F5
:10421000016044F2D820C2F200000121016044F2A2
:104220000C30C2F20000046000F052F806B010BD7D
:1042300049444C450000000044F21800C2F200005E
:10424000016801310160704744F21800C2F20000B9
:10425000006830B144F21030C2F200000121016068
:10426000704744F21030C2F200000021016044F2B5
:104270002000C2F200000068B0FA80F0C0B2C0F1C5
:104280001F0040F20C3100EB8000C2F2000151F837
:10429000202092B101EB800050F8041F4968021DF4
:1042A0009142016001D149680160006840F2FC213F
:1042B000C068C2F20001086070474FF0500080F300
:1042C0001188BFF36F8FBFF34F8F00BFFEE7000071
:1042D000B0B584B04EF20040CEF200004CF2702136
:1042E000C4F20F11D0F800294B1C9A4209D14FF0AB
:1042F000500080F31188BFF36F8FBFF34F8F00BF63
:10430000FEE7D0F800298A4209D14FF0500080F32F
:104310001188BFF36F8FBFF34F8F00BFFEE70178A7
:1043200044F206020291FF2101700178C2F20002FC
:104330008DF807109DF8071001F05001117044F23C
:104340000801C2F2000107220A609DF90720B2F1BC
:10435000FF3F0BDC0A68013A0A609DF80720520013
:104360008DF807209DF90720002AF3D40A68032A54
:104370003CD14FF4E06303EA02220A600299017023
:10438000D0F8201941F47001C0F82019D0F8201994
:1043900041F07041C0F82019FFF792FE40F20C0482
:1043A000C2F2000400252560FFF7DCFD4EF63470F4
:1043B000CEF20000016841F040410160FFF750FC7F
:1043C000FFF742FF039520684FF0500181F31188F9
:1043D000BFF36F8FBFF34F8F013001D0FEE700BFF7
:1043E00003980028FCD0002004B0B0BD4FF050006E
:1043F00080F31188BFF36F8FBFF34F8FFEE700008C
:104400002DE9F04781469000984614460F46FFF785
:1044100055FC70B105465420FFF750FC30B10646FC
:1044200005634EB94FF0FF30BDE8F0872846FFF72F
:10443000DFFD0026002EF5D0316BDDE9085A01EBD7
:1044400084010439002021F0070486F851007FB16F
:1044500006F13400002100BF7A5C42547A5C1AB144
:104460000F2901F10101F7D3002086F8430001E094
:1044700086F834000027301D062D28BF0625F5627A
:10448000C6E91157FFF73EFD06F11800FFF73AFDA8
:1044900085F00700B06120464946424636617662A3
:1044A000F76486F85070FFF7EDFC30603046BAF1E3
:1044B000000F18BFCAF80060FFF7F8FA0120BDE846
:1044C000F08700002DE9F04782B099460B9BEBB1D5
:1044D0000C9D25B38246542001900198542828D180
:1044E0000A9F019802202B6385F8510059B305F10A
:1044F000340000240E5D06550E5D1EB10F2C04F134
:104500000104F7D3002085F843001FE04FF050006E
:1045100080F31188BFF36F8FBFF34F8FFEE74FF02B
:10452000500080F31188BFF36F8FBFF34F8F00BF30
:10453000FEE74FF0500080F31188BFF36F8FBFF399
:104540004F8F00BFFEE7002085F8340003EB8200A8
:10455000043820F007080024281D062F28BF06274E
:10456000EF62C5E91174FFF7CDFC05F11800FFF704
:10457000C9FC87F00700A861404651464A462D61B4
:104580006D62EC6485F85040FFF77CFC286028469B
:10459000FFF78CFA284602B0BDE8F0872DE9F04F0E
:1045A00081B044F21800C2F20000006840B144F249
:1045B000C020C2F200000168002401310160A9E0BE
:1045C00044F20C30C2F2000001684E1C06602ED38B
:1045D00040F20030C2F200000168096849B14FF0B2
:1045E000500080F31188BFF36F8FBFF34F8F00BF70
:1045F000FEE740F20832C2F200020168136803606D
:10460000116044F2B421C2F200010A6801320A606A
:104610000168096821B10068C068C068406801E0AD
:104620004FF0FF3044F2B021C2F20001086044F2C2
:10463000B021C2F20001086840F2FC2A8642C2F2B0
:10464000000A01D200244FE040F2003BC2F2000B0E
:10465000DBF8000000240068E0B344F220090127E1
:10466000C2F2000920E000BFD8F82C00D9F80010F1
:1046700007FA00F21143C9F8001040F20C3100EBC8
:104680008000C2F2000101EB80002946FFF75CFCCC
:10469000D8F82C00DAF80010C96ADBF8002088424C
:1046A000106828BF3C46C0B1DBF80000C068D0F8F5
:1046B0000C80454655F8040F864210D32846FFF774
:1046C000F5FBD8F828000028CED008F11800FFF735
:1046D000EDFBC9E74FF0FF3005E04FF0FF3044F24B
:1046E000B021C2F200010860DAF8000040F20C319B
:1046F000C06AC2F2000100EB800051F820000128DE
:1047000044F21030C2F2000088BF01240068002883
:1047100018BF0124204601B0BDE8F08F2DE9F04F0D
:1047200081B044F21804C2F20004206868B1FFF7B7
:1047300023FC206801382060206880B10024FFF746
:104740003FFC204601B0BDE8F08F4FF0500080F3F1
:104750001188BFF36F8FBFF34F8F00BFFEE744F2A6
:104760001000C2F200000068002848D044F2C426BD
:10477000C2F20006306844F210380028C2F2000885
:1047800046D044F2200540F20C3940F2FC2A4FF0AA
:10479000010BC2F20005C2F20009C2F2000A00BF1A
:1047A000F068C76807F11800FFF780FB3C1D204642
:1047B000FFF77CFBF86A29680BFA00F2114300EB63
:1047C0008000296009EB80002146FFF7BDFBF86AF5
:1047D000DAF80010C96A884228BFC8F800B030680B
:1047E0000028DDD1A7B140F20030C2F2000001681C
:1047F000096831B10068C068C068406803E00024FF
:104800009DE74FF0FF3044F2B021C2F20001086092
:1048100044F2C024C2F2000425685DB1012600BF45
:10482000FFF7BCFE002818BFC8F80060013DF7D1B3
:1048300000202060D8F8000060B14EF60450CEF29F
:1048400000004FF080510160BFF34F8F0124BFF390
:104850006F8F74E7002472E74100080218BF04203C
:104860000A0E18BF40F001004FF07F4232EA01010A
:1048700008BF40F00200012808BF05207047000073
:1048800000B510EE101A2DED028B81B0524A684629
:10489000B2EB410F2ED94FF0E640B0EB410F94BF81
:1048A00000204FF0FF3000900098B0EE408A0028C2
:1048B0006ADB10F0010F4BD068EE080A9FED471A33
:1048C0009FED470A00EE810A9FED461A10F0020F95
:1048D00000EE801AB7EE000A00EE810A02BF01B0B6
:1048E000BDEC028B00BD00BF01B0B1EE400ABDECD3
:1048F000028B00BD3C4B21F00042934241D911F0A4
:10490000004FDFED3A0A20EE201ADFED390A19BF19
:1049100031EE601A71EE200A31EE201A71EE600A53
:10492000BDEEE01A11EE100A9FED321A00F00300FE
:1049300000EEC10A9FED301A009000EEC10A9FED13
:104940002F1A00EEC10A9FED2E1A00EEC10AABE746
:1049500028EE080A9FED2B1ADFED2B0A10F0020F4C
:1049600040EE010A9FED291A00EE201A61EE000ABE
:10497000B0EE480A08EE200AB6D101B0BDEC028BB9
:1049800000BD00F059F88FE718EE100A4000B0F1B2
:104990007F4F0DD218EE100AFFF75EFF042808BF04
:1049A00000F042F8B0EE480A01B0BDEC028B00BD49
:1049B00009D10120FBF7FFFC01B0BDEC028B5DF8D3
:1049C00004EB00F029B801B0B0EE480ABDEC028B50
:1049D0005DF804EB00F01CB8B61F927EB93AB2BA8B
:1049E000CA9F2A3DDDFFFFBE490E494683F9223F9B
:1049F0000000004B0000C93F00A0FD390020A23399
:104A00001A61342C336D4CB9DA82083CA0AA2ABE54
:104A100030EE000A70470000DFED020A80EEA00AC7
:104A200070470000000000009FED020A20EE000A1F
:104A300070470000000000102DE9F0014FF07F42A8
:104A4000B2EB410F9FBF4FF0FF310160BDE8F001B5
:104A500070474FF0004242EA0123C1F3C752783A4F
:104A6000551112F01F0C434CCCF120067C44C1F3CD
:104A7000C752A2F178024FEA621204EB820254F8A4
:104A8000254008BFD2E9015612D0556804FA0CF44B
:104A900025FA06F73C43976805FA0CF527FA06F85D
:104AA000D26807FA0CFCF24045EA08054CEA020617
:104AB000A4FB034CA5FB0352A6FB03631D449D42CC
:104AC00034BF012600261319334416B1934202D98C
:104AD00003E0934201D2012200E00022624402F18D
:104AE000200C9206DC0C42EA443200EE102A5B03F2
:104AF000DFED210AF8EEC01A00EE103A4FEA9C1CD6
:104B000011F0004FB8EE400AC0F800C020EE201AA5
:104B100000EE105ADFED190AB8EE400A20EE200A26
:104B200071EE810A70EE800A10EE902A02F50062A2
:104B30006FF30B0200EE902A70EEE11A31EEC11A0B
:104B4000DFED101A30EE411A9FED0D0A20EE800ABB
:104B500001EE210A9FED0C1A00EE810A04BFBDE8A8
:104B6000F0017047CCF180510160BDE8F001B1EE79
:104B7000400A704738010000000000360000802C19
:104B800022AAFD29DB0FC92F0000C92FF1EE100A60
:104B90004FF6FF71C0F2C03120EA010040F04070D2
:104BA000E1EE100A70470000000000006E83F9A2D9
:104BB0002915444ED15727FCC0DD34F5999562DBA9
:104BC0004190433CAB6351FE914C000845320008D4
:104BD0000000000000000000800000000000000055
:104BE00000000000744C000855320008010000006D
:104BF00000000000000100000000000000000000B4
:104C0000A94C00085D320008000000000000000010
:104C1000800000000000000000000000844C00083C
:104C200065320008FEFF0000000000008000000068
:104C300000000000000000009D4C00084D320008FC
:104C400000000000000000008000000000000000E4
:104C5000000000000000000000000000010203044A
:104C600006070809000000000102030400061016F0
:104C700000061016466565646261636B313030482A
:104C80007A54610057617465724C65645461736B4A
:104C900000427265617468655461736B0064656697
:104CA00061756C745461736B004E6F697365353058
:104CB00030487A5461736B00D84C00080000002023
:104CC00018000000C4010008F04C00081800002083
:104CD000004F0000E00100080024F4000100000083
:104CE00010000000AAAAAAAA000000000000807F0D
:040000050800018965
:00000001FF
